{
  "_format": "hh-sol-artifact-1",
  "contractName": "Register",
  "sourceName": "contracts/Regsiter.sol",
  "abi": [
    {
      "inputs": [],
      "stateMutability": "nonpayable",
      "type": "constructor"
    },
    {
      "inputs": [
        {
          "internalType": "uint256",
          "name": "",
          "type": "uint256"
        }
      ],
      "name": "eachStudent",
      "outputs": [
        {
          "internalType": "uint256",
          "name": "id",
          "type": "uint256"
        },
        {
          "internalType": "string",
          "name": "name",
          "type": "string"
        },
        {
          "internalType": "uint256",
          "name": "age",
          "type": "uint256"
        },
        {
          "internalType": "bool",
          "name": "added",
          "type": "bool"
        },
        {
          "internalType": "uint256",
          "name": "confirmed",
          "type": "uint256"
        }
      ],
      "stateMutability": "view",
      "type": "function"
    },
    {
      "inputs": [
        {
          "internalType": "uint256",
          "name": "id",
          "type": "uint256"
        }
      ],
      "name": "getStudent",
      "outputs": [
        {
          "internalType": "string",
          "name": "",
          "type": "string"
        },
        {
          "internalType": "uint256",
          "name": "",
          "type": "uint256"
        }
      ],
      "stateMutability": "view",
      "type": "function"
    },
    {
      "inputs": [],
      "name": "nextId",
      "outputs": [
        {
          "internalType": "uint256",
          "name": "",
          "type": "uint256"
        }
      ],
      "stateMutability": "view",
      "type": "function"
    },
    {
      "inputs": [
        {
          "internalType": "uint256",
          "name": "id",
          "type": "uint256"
        },
        {
          "internalType": "string",
          "name": "name",
          "type": "string"
        },
        {
          "internalType": "uint256",
          "name": "_age",
          "type": "uint256"
        }
      ],
      "name": "registerStudent",
      "outputs": [],
      "stateMutability": "nonpayable",
      "type": "function"
    },
    {
      "inputs": [
        {
          "internalType": "uint256",
          "name": "id",
          "type": "uint256"
        }
      ],
      "name": "removeStudent",
      "outputs": [],
      "stateMutability": "nonpayable",
      "type": "function"
    },
    {
      "inputs": [
        {
          "internalType": "uint256",
          "name": "id",
          "type": "uint256"
        }
      ],
      "name": "studentAdded",
      "outputs": [
        {
          "internalType": "bool",
          "name": "",
          "type": "bool"
        }
      ],
      "stateMutability": "nonpayable",
      "type": "function"
    },
    {
      "inputs": [],
      "name": "user",
      "outputs": [
        {
          "internalType": "address",
          "name": "",
          "type": "address"
        }
      ],
      "stateMutability": "view",
      "type": "function"
    }
  ],
  "bytecode": "0x6080604052348015600f57600080fd5b50336000806101000a81548173ffffffffffffffffffffffffffffffffffffffff021916908373ffffffffffffffffffffffffffffffffffffffff16021790555061107c8061005f6000396000f3fe608060405234801561001057600080fd5b506004361061007d5760003560e01c8063642f91631161005b578063642f9163146100da5780636af838451461010b578063d50ff45914610127578063e84cf12f146101575761007d565b80631b5c81a5146100825780634f8632ba1461009e57806361b8ce8c146100bc575b600080fd5b61009c600480360381019061009791906108e9565b61018b565b005b6100a6610351565b6040516100b39190610999565b60405180910390f35b6100c4610375565b6040516100d191906109c3565b60405180910390f35b6100f460048036038101906100ef91906109de565b61037b565b604051610102929190610a8a565b60405180910390f35b610125600480360381019061012091906109de565b610443565b005b610141600480360381019061013c91906109de565b61051b565b60405161014e9190610ad5565b60405180910390f35b610171600480360381019061016c91906109de565b610621565b604051610182959493929190610af0565b60405180910390f35b60008054906101000a900473ffffffffffffffffffffffffffffffffffffffff1673ffffffffffffffffffffffffffffffffffffffff163373ffffffffffffffffffffffffffffffffffffffff1614610219576040517f08c379a000000000000000000000000000000000000000000000000000000000815260040161021090610b96565b60405180910390fd5b600073ffffffffffffffffffffffffffffffffffffffff163373ffffffffffffffffffffffffffffffffffffffff1603610288576040517f08c379a000000000000000000000000000000000000000000000000000000000815260040161027f90610c02565b60405180910390fd5b60036040518060a00160405280858152602001848152602001838152602001600115158152602001600081525090806001815401808255809150506001900390600052602060002090600502016000909190919091506000820151816000015560208201518160010190816102fd9190610e2e565b506040820151816002015560608201518160030160006101000a81548160ff0219169083151502179055506080820151816004015550506001600081548092919061034790610f2f565b9190505550505050565b60008054906101000a900473ffffffffffffffffffffffffffffffffffffffff1681565b60015481565b60606000806003848154811061039457610393610f77565b5b906000526020600020906005020190508060010181600201548180546103b990610c51565b80601f01602080910402602001604051908101604052809291908181526020018280546103e590610c51565b80156104325780601f1061040757610100808354040283529160200191610432565b820191906000526020600020905b81548152906001019060200180831161041557829003601f168201915b505050505091509250925050915091565b60006003828154811061045957610458610f77565b5b9060005260206000209060050201600101805461047590610c51565b9050116104b7576040517f08c379a00000000000000000000000000000000000000000000000000000000081526004016104ae90610ff2565b60405180910390fd5b600381815481106104cb576104ca610f77565b5b90600052602060002090600502016000808201600090556001820160006104f291906106fc565b60028201600090556003820160006101000a81549060ff02191690556004820160009055505050565b60008060009054906101000a900473ffffffffffffffffffffffffffffffffffffffff1673ffffffffffffffffffffffffffffffffffffffff163373ffffffffffffffffffffffffffffffffffffffff16146105ac576040517f08c379a00000000000000000000000000000000000000000000000000000000081526004016105a390610b96565b60405180910390fd5b6000600383815481106105c2576105c1610f77565b5b9060005260206000209060050201905060018160040160008282546105e79190611012565b9250508190555060016002600085815260200190815260200160002060006101000a81548160ff0219169083151502179055915050919050565b6003818154811061063157600080fd5b906000526020600020906005020160009150905080600001549080600101805461065a90610c51565b80601f016020809104026020016040519081016040528092919081815260200182805461068690610c51565b80156106d35780601f106106a8576101008083540402835291602001916106d3565b820191906000526020600020905b8154815290600101906020018083116106b657829003601f168201915b5050505050908060020154908060030160009054906101000a900460ff16908060040154905085565b50805461070890610c51565b6000825580601f1061071a5750610739565b601f016020900490600052602060002090810190610738919061073c565b5b50565b5b8082111561075557600081600090555060010161073d565b5090565b6000604051905090565b600080fd5b600080fd5b6000819050919050565b6107808161076d565b811461078b57600080fd5b50565b60008135905061079d81610777565b92915050565b600080fd5b600080fd5b6000601f19601f8301169050919050565b7f4e487b7100000000000000000000000000000000000000000000000000000000600052604160045260246000fd5b6107f6826107ad565b810181811067ffffffffffffffff82111715610815576108146107be565b5b80604052505050565b6000610828610759565b905061083482826107ed565b919050565b600067ffffffffffffffff821115610854576108536107be565b5b61085d826107ad565b9050602081019050919050565b82818337600083830152505050565b600061088c61088784610839565b61081e565b9050828152602081018484840111156108a8576108a76107a8565b5b6108b384828561086a565b509392505050565b600082601f8301126108d0576108cf6107a3565b5b81356108e0848260208601610879565b91505092915050565b60008060006060848603121561090257610901610763565b5b60006109108682870161078e565b935050602084013567ffffffffffffffff81111561093157610930610768565b5b61093d868287016108bb565b925050604061094e8682870161078e565b9150509250925092565b600073ffffffffffffffffffffffffffffffffffffffff82169050919050565b600061098382610958565b9050919050565b61099381610978565b82525050565b60006020820190506109ae600083018461098a565b92915050565b6109bd8161076d565b82525050565b60006020820190506109d860008301846109b4565b92915050565b6000602082840312156109f4576109f3610763565b5b6000610a028482850161078e565b91505092915050565b600081519050919050565b600082825260208201905092915050565b60005b83811015610a45578082015181840152602081019050610a2a565b60008484015250505050565b6000610a5c82610a0b565b610a668185610a16565b9350610a76818560208601610a27565b610a7f816107ad565b840191505092915050565b60006040820190508181036000830152610aa48185610a51565b9050610ab360208301846109b4565b9392505050565b60008115159050919050565b610acf81610aba565b82525050565b6000602082019050610aea6000830184610ac6565b92915050565b600060a082019050610b0560008301886109b4565b8181036020830152610b178187610a51565b9050610b2660408301866109b4565b610b336060830185610ac6565b610b4060808301846109b4565b9695505050505050565b7f596f7520617265206e6f74207468652074656163686572000000000000000000600082015250565b6000610b80601783610a16565b9150610b8b82610b4a565b602082019050919050565b60006020820190508181036000830152610baf81610b73565b9050919050565b7f41646472657373207a65726f206e6f7420616c6c6f7765640000000000000000600082015250565b6000610bec601883610a16565b9150610bf782610bb6565b602082019050919050565b60006020820190508181036000830152610c1b81610bdf565b9050919050565b7f4e487b7100000000000000000000000000000000000000000000000000000000600052602260045260246000fd5b60006002820490506001821680610c6957607f821691505b602082108103610c7c57610c7b610c22565b5b50919050565b60008190508160005260206000209050919050565b60006020601f8301049050919050565b600082821b905092915050565b600060088302610ce47fffffffffffffffffffffffffffffffffffffffffffffffffffffffffffffffff82610ca7565b610cee8683610ca7565b95508019841693508086168417925050509392505050565b6000819050919050565b6000610d2b610d26610d218461076d565b610d06565b61076d565b9050919050565b6000819050919050565b610d4583610d10565b610d59610d5182610d32565b848454610cb4565b825550505050565b600090565b610d6e610d61565b610d79818484610d3c565b505050565b5b81811015610d9d57610d92600082610d66565b600181019050610d7f565b5050565b601f821115610de257610db381610c82565b610dbc84610c97565b81016020851015610dcb578190505b610ddf610dd785610c97565b830182610d7e565b50505b505050565b600082821c905092915050565b6000610e0560001984600802610de7565b1980831691505092915050565b6000610e1e8383610df4565b9150826002028217905092915050565b610e3782610a0b565b67ffffffffffffffff811115610e5057610e4f6107be565b5b610e5a8254610c51565b610e65828285610da1565b600060209050601f831160018114610e985760008415610e86578287015190505b610e908582610e12565b865550610ef8565b601f198416610ea686610c82565b60005b82811015610ece57848901518255600182019150602085019450602081019050610ea9565b86831015610eeb5784890151610ee7601f891682610df4565b8355505b6001600288020188555050505b505050505050565b7f4e487b7100000000000000000000000000000000000000000000000000000000600052601160045260246000fd5b6000610f3a8261076d565b91507fffffffffffffffffffffffffffffffffffffffffffffffffffffffffffffffff8203610f6c57610f6b610f00565b5b600182019050919050565b7f4e487b7100000000000000000000000000000000000000000000000000000000600052603260045260246000fd5b7f53747564656e74206e6f7420666f756e64000000000000000000000000000000600082015250565b6000610fdc601183610a16565b9150610fe782610fa6565b602082019050919050565b6000602082019050818103600083015261100b81610fcf565b9050919050565b600061101d8261076d565b91506110288361076d565b92508282019050808211156110405761103f610f00565b5b9291505056fea2646970667358221220b053533994ac357105fa46ff6f3cedba853c2b9e6d9193d6d3f3b40034670cbe64736f6c634300081c0033",
  "linkReferences": {},
  "deployedLinkReferences": {}
}